{
  "_format": "hh-sol-artifact-1",
  "contractName": "BuyPranaBond",
  "sourceName": "contracts/BuyPranaBond.sol",
  "abi": [
    {
      "inputs": [
        {
          "internalType": "address",
          "name": "_wbtc",
          "type": "address"
        },
        {
          "internalType": "address",
          "name": "_prana",
          "type": "address"
        },
        {
          "internalType": "address",
          "name": "_uniswapV3PoolAddress",
          "type": "address"
        }
      ],
      "stateMutability": "nonpayable",
      "type": "constructor"
    },
    {
      "inputs": [],
      "name": "AccessControlBadConfirmation",
      "type": "error"
    },
    {
      "inputs": [
        {
          "internalType": "address",
          "name": "account",
          "type": "address"
        },
        {
          "internalType": "bytes32",
          "name": "neededRole",
          "type": "bytes32"
        }
      ],
      "name": "AccessControlUnauthorizedAccount",
      "type": "error"
    },
    {
      "inputs": [],
      "name": "EnforcedPause",
      "type": "error"
    },
    {
      "inputs": [],
      "name": "ExpectedPause",
      "type": "error"
    },
    {
      "inputs": [],
      "name": "ReentrancyGuardReentrantCall",
      "type": "error"
    },
    {
      "inputs": [
        {
          "internalType": "address",
          "name": "token",
          "type": "address"
        }
      ],
      "name": "SafeERC20FailedOperation",
      "type": "error"
    },
    {
      "anonymous": false,
      "inputs": [
        {
          "indexed": false,
          "internalType": "uint256",
          "name": "bondId",
          "type": "uint256"
        },
        {
          "indexed": false,
          "internalType": "address",
          "name": "owner",
          "type": "address"
        },
        {
          "indexed": false,
          "internalType": "uint256",
          "name": "pranaAmount",
          "type": "uint256"
        }
      ],
      "name": "BondClaimed",
      "type": "event"
    },
    {
      "anonymous": false,
      "inputs": [
        {
          "indexed": false,
          "internalType": "uint256",
          "name": "bondId",
          "type": "uint256"
        },
        {
          "indexed": false,
          "internalType": "address",
          "name": "owner",
          "type": "address"
        },
        {
          "indexed": false,
          "internalType": "uint256",
          "name": "wbtcAmount",
          "type": "uint256"
        },
        {
          "indexed": false,
          "internalType": "uint256",
          "name": "pranaAmount",
          "type": "uint256"
        },
        {
          "indexed": false,
          "internalType": "uint256",
          "name": "maturityTime",
          "type": "uint256"
        }
      ],
      "name": "BondCreated",
      "type": "event"
    },
    {
      "anonymous": false,
      "inputs": [
        {
          "indexed": false,
          "internalType": "uint256",
          "name": "newMinBuyAmount",
          "type": "uint256"
        }
      ],
      "name": "MinBuyAmountUpdated",
      "type": "event"
    },
    {
      "anonymous": false,
      "inputs": [
        {
          "indexed": false,
          "internalType": "address",
          "name": "account",
          "type": "address"
        }
      ],
      "name": "Paused",
      "type": "event"
    },
    {
      "anonymous": false,
      "inputs": [
        {
          "indexed": true,
          "internalType": "bytes32",
          "name": "role",
          "type": "bytes32"
        },
        {
          "indexed": true,
          "internalType": "bytes32",
          "name": "previousAdminRole",
          "type": "bytes32"
        },
        {
          "indexed": true,
          "internalType": "bytes32",
          "name": "newAdminRole",
          "type": "bytes32"
        }
      ],
      "name": "RoleAdminChanged",
      "type": "event"
    },
    {
      "anonymous": false,
      "inputs": [
        {
          "indexed": true,
          "internalType": "bytes32",
          "name": "role",
          "type": "bytes32"
        },
        {
          "indexed": true,
          "internalType": "address",
          "name": "account",
          "type": "address"
        },
        {
          "indexed": true,
          "internalType": "address",
          "name": "sender",
          "type": "address"
        }
      ],
      "name": "RoleGranted",
      "type": "event"
    },
    {
      "anonymous": false,
      "inputs": [
        {
          "indexed": true,
          "internalType": "bytes32",
          "name": "role",
          "type": "bytes32"
        },
        {
          "indexed": true,
          "internalType": "address",
          "name": "account",
          "type": "address"
        },
        {
          "indexed": true,
          "internalType": "address",
          "name": "sender",
          "type": "address"
        }
      ],
      "name": "RoleRevoked",
      "type": "event"
    },
    {
      "anonymous": false,
      "inputs": [
        {
          "indexed": false,
          "internalType": "address",
          "name": "account",
          "type": "address"
        }
      ],
      "name": "Unpaused",
      "type": "event"
    },
    {
      "inputs": [],
      "name": "BOND_MANAGER_ROLE",
      "outputs": [
        {
          "internalType": "bytes32",
          "name": "",
          "type": "bytes32"
        }
      ],
      "stateMutability": "view",
      "type": "function"
    },
    {
      "inputs": [],
      "name": "DEFAULT_ADMIN_ROLE",
      "outputs": [
        {
          "internalType": "bytes32",
          "name": "",
          "type": "bytes32"
        }
      ],
      "stateMutability": "view",
      "type": "function"
    },
    {
      "inputs": [],
      "name": "PRANA",
      "outputs": [
        {
          "internalType": "address",
          "name": "",
          "type": "address"
        }
      ],
      "stateMutability": "view",
      "type": "function"
    },
    {
      "inputs": [],
      "name": "WBTC",
      "outputs": [
        {
          "internalType": "address",
          "name": "",
          "type": "address"
        }
      ],
      "stateMutability": "view",
      "type": "function"
    },
    {
      "inputs": [
        {
          "internalType": "uint256",
          "name": "",
          "type": "uint256"
        }
      ],
      "name": "bondHolders",
      "outputs": [
        {
          "internalType": "address",
          "name": "",
          "type": "address"
        }
      ],
      "stateMutability": "view",
      "type": "function"
    },
    {
      "inputs": [
        {
          "internalType": "enum BuyPranaBond.BondTerm",
          "name": "",
          "type": "uint8"
        }
      ],
      "name": "bondRates",
      "outputs": [
        {
          "internalType": "uint256",
          "name": "rate",
          "type": "uint256"
        },
        {
          "internalType": "uint256",
          "name": "duration",
          "type": "uint256"
        }
      ],
      "stateMutability": "view",
      "type": "function"
    },
    {
      "inputs": [
        {
          "internalType": "uint256",
          "name": "",
          "type": "uint256"
        }
      ],
      "name": "bonds",
      "outputs": [
        {
          "internalType": "uint256",
          "name": "id",
          "type": "uint256"
        },
        {
          "internalType": "address",
          "name": "owner",
          "type": "address"
        },
        {
          "internalType": "uint256",
          "name": "wbtcAmount",
          "type": "uint256"
        },
        {
          "internalType": "uint256",
          "name": "pranaAmount",
          "type": "uint256"
        },
        {
          "internalType": "uint256",
          "name": "maturityTime",
          "type": "uint256"
        },
        {
          "internalType": "uint256",
          "name": "creationTime",
          "type": "uint256"
        },
        {
          "internalType": "uint256",
          "name": "lastClaimTime",
          "type": "uint256"
        },
        {
          "internalType": "uint256",
          "name": "claimedPrana",
          "type": "uint256"
        },
        {
          "internalType": "bool",
          "name": "claimed",
          "type": "bool"
        }
      ],
      "stateMutability": "view",
      "type": "function"
    },
    {
      "inputs": [
        {
          "internalType": "uint256",
          "name": "pranaAmount",
          "type": "uint256"
        },
        {
          "internalType": "enum BuyPranaBond.BondTerm",
          "name": "period",
          "type": "uint8"
        }
      ],
      "name": "buyBondForPranaAmount",
      "outputs": [
        {
          "internalType": "uint256",
          "name": "",
          "type": "uint256"
        }
      ],
      "stateMutability": "nonpayable",
      "type": "function"
    },
    {
      "inputs": [
        {
          "internalType": "uint256",
          "name": "wbtcAmount",
          "type": "uint256"
        },
        {
          "internalType": "enum BuyPranaBond.BondTerm",
          "name": "period",
          "type": "uint8"
        }
      ],
      "name": "buyBondForWbtcAmount",
      "outputs": [
        {
          "internalType": "uint256",
          "name": "",
          "type": "uint256"
        }
      ],
      "stateMutability": "nonpayable",
      "type": "function"
    },
    {
      "inputs": [
        {
          "internalType": "uint256",
          "name": "bondId",
          "type": "uint256"
        }
      ],
      "name": "claimBond",
      "outputs": [],
      "stateMutability": "nonpayable",
      "type": "function"
    },
    {
      "inputs": [],
      "name": "committedPrana",
      "outputs": [
        {
          "internalType": "uint256",
          "name": "",
          "type": "uint256"
        }
      ],
      "stateMutability": "view",
      "type": "function"
    },
    {
      "inputs": [],
      "name": "getAllActiveBonds",
      "outputs": [
        {
          "components": [
            {
              "internalType": "uint256",
              "name": "id",
              "type": "uint256"
            },
            {
              "internalType": "address",
              "name": "owner",
              "type": "address"
            },
            {
              "internalType": "uint256",
              "name": "wbtcAmount",
              "type": "uint256"
            },
            {
              "internalType": "uint256",
              "name": "pranaAmount",
              "type": "uint256"
            },
            {
              "internalType": "uint256",
              "name": "maturityTime",
              "type": "uint256"
            },
            {
              "internalType": "uint256",
              "name": "creationTime",
              "type": "uint256"
            },
            {
              "internalType": "uint256",
              "name": "lastClaimTime",
              "type": "uint256"
            },
            {
              "internalType": "uint256",
              "name": "claimedPrana",
              "type": "uint256"
            },
            {
              "internalType": "bool",
              "name": "claimed",
              "type": "bool"
            }
          ],
          "internalType": "struct BuyPranaBond.Bond[]",
          "name": "",
          "type": "tuple[]"
        }
      ],
      "stateMutability": "view",
      "type": "function"
    },
    {
      "inputs": [],
      "name": "getAllBondRates",
      "outputs": [
        {
          "internalType": "enum BuyPranaBond.BondTerm[]",
          "name": "",
          "type": "uint8[]"
        },
        {
          "internalType": "uint256[]",
          "name": "",
          "type": "uint256[]"
        },
        {
          "internalType": "uint256[]",
          "name": "",
          "type": "uint256[]"
        }
      ],
      "stateMutability": "view",
      "type": "function"
    },
    {
      "inputs": [],
      "name": "getBondHoldersLength",
      "outputs": [
        {
          "internalType": "uint256",
          "name": "",
          "type": "uint256"
        }
      ],
      "stateMutability": "view",
      "type": "function"
    },
    {
      "inputs": [
        {
          "internalType": "bytes32",
          "name": "role",
          "type": "bytes32"
        }
      ],
      "name": "getRoleAdmin",
      "outputs": [
        {
          "internalType": "bytes32",
          "name": "",
          "type": "bytes32"
        }
      ],
      "stateMutability": "view",
      "type": "function"
    },
    {
      "inputs": [
        {
          "internalType": "address",
          "name": "user",
          "type": "address"
        }
      ],
      "name": "getUserActiveBonds",
      "outputs": [
        {
          "components": [
            {
              "internalType": "uint256",
              "name": "id",
              "type": "uint256"
            },
            {
              "internalType": "address",
              "name": "owner",
              "type": "address"
            },
            {
              "internalType": "uint256",
              "name": "wbtcAmount",
              "type": "uint256"
            },
            {
              "internalType": "uint256",
              "name": "pranaAmount",
              "type": "uint256"
            },
            {
              "internalType": "uint256",
              "name": "maturityTime",
              "type": "uint256"
            },
            {
              "internalType": "uint256",
              "name": "creationTime",
              "type": "uint256"
            },
            {
              "internalType": "uint256",
              "name": "lastClaimTime",
              "type": "uint256"
            },
            {
              "internalType": "uint256",
              "name": "claimedPrana",
              "type": "uint256"
            },
            {
              "internalType": "bool",
              "name": "claimed",
              "type": "bool"
            }
          ],
          "internalType": "struct BuyPranaBond.Bond[]",
          "name": "",
          "type": "tuple[]"
        }
      ],
      "stateMutability": "view",
      "type": "function"
    },
    {
      "inputs": [
        {
          "internalType": "bytes32",
          "name": "role",
          "type": "bytes32"
        },
        {
          "internalType": "address",
          "name": "account",
          "type": "address"
        }
      ],
      "name": "grantRole",
      "outputs": [],
      "stateMutability": "nonpayable",
      "type": "function"
    },
    {
      "inputs": [
        {
          "internalType": "bytes32",
          "name": "role",
          "type": "bytes32"
        },
        {
          "internalType": "address",
          "name": "account",
          "type": "address"
        }
      ],
      "name": "hasRole",
      "outputs": [
        {
          "internalType": "bool",
          "name": "",
          "type": "bool"
        }
      ],
      "stateMutability": "view",
      "type": "function"
    },
    {
      "inputs": [],
      "name": "minPranaBuyAmount",
      "outputs": [
        {
          "internalType": "uint256",
          "name": "",
          "type": "uint256"
        }
      ],
      "stateMutability": "view",
      "type": "function"
    },
    {
      "inputs": [],
      "name": "pause",
      "outputs": [],
      "stateMutability": "nonpayable",
      "type": "function"
    },
    {
      "inputs": [],
      "name": "paused",
      "outputs": [
        {
          "internalType": "bool",
          "name": "",
          "type": "bool"
        }
      ],
      "stateMutability": "view",
      "type": "function"
    },
    {
      "inputs": [
        {
          "internalType": "bytes32",
          "name": "role",
          "type": "bytes32"
        },
        {
          "internalType": "address",
          "name": "callerConfirmation",
          "type": "address"
        }
      ],
      "name": "renounceRole",
      "outputs": [],
      "stateMutability": "nonpayable",
      "type": "function"
    },
    {
      "inputs": [
        {
          "internalType": "bytes32",
          "name": "role",
          "type": "bytes32"
        },
        {
          "internalType": "address",
          "name": "account",
          "type": "address"
        }
      ],
      "name": "revokeRole",
      "outputs": [],
      "stateMutability": "nonpayable",
      "type": "function"
    },
    {
      "inputs": [
        {
          "internalType": "bytes4",
          "name": "interfaceId",
          "type": "bytes4"
        }
      ],
      "name": "supportsInterface",
      "outputs": [
        {
          "internalType": "bool",
          "name": "",
          "type": "bool"
        }
      ],
      "stateMutability": "view",
      "type": "function"
    },
    {
      "inputs": [],
      "name": "uniswapV3PoolAddress",
      "outputs": [
        {
          "internalType": "address",
          "name": "",
          "type": "address"
        }
      ],
      "stateMutability": "view",
      "type": "function"
    },
    {
      "inputs": [],
      "name": "unpause",
      "outputs": [],
      "stateMutability": "nonpayable",
      "type": "function"
    },
    {
      "inputs": [
        {
          "internalType": "enum BuyPranaBond.BondTerm",
          "name": "period",
          "type": "uint8"
        },
        {
          "internalType": "uint256",
          "name": "_rate",
          "type": "uint256"
        },
        {
          "internalType": "uint256",
          "name": "_duration",
          "type": "uint256"
        }
      ],
      "name": "updateBondRates",
      "outputs": [],
      "stateMutability": "nonpayable",
      "type": "function"
    },
    {
      "inputs": [
        {
          "internalType": "uint256",
          "name": "_minPranaBuyAmount",
          "type": "uint256"
        }
      ],
      "name": "updateMinBuyAmount",
      "outputs": [],
      "stateMutability": "nonpayable",
      "type": "function"
    },
    {
      "inputs": [
        {
          "internalType": "enum BuyPranaBond.BondTerm[]",
          "name": "periods",
          "type": "uint8[]"
        },
        {
          "internalType": "uint256[]",
          "name": "rates",
          "type": "uint256[]"
        },
        {
          "internalType": "uint256[]",
          "name": "durations",
          "type": "uint256[]"
        }
      ],
      "name": "updateMultipleBondRates",
      "outputs": [],
      "stateMutability": "nonpayable",
      "type": "function"
    },
    {
      "inputs": [
        {
          "internalType": "address",
          "name": "token",
          "type": "address"
        },
        {
          "internalType": "uint256",
          "name": "amount",
          "type": "uint256"
        }
      ],
      "name": "withdrawTreasury",
      "outputs": [],
      "stateMutability": "nonpayable",
      "type": "function"
    }
  ],
  "bytecode": "0x60e060405264174876e80060085534801561001957600080fd5b50604051613bd4380380613bd48339810160408190526100389161063a565b600180556002805460ff191690556001600160a01b0383166100a15760405162461bcd60e51b815260206004820152601460248201527f496e76616c69642057425443206164647265737300000000000000000000000060448201526064015b60405180910390fd5b6001600160a01b0382166100f75760405162461bcd60e51b815260206004820152601560248201527f496e76616c6964205052414e41206164647265737300000000000000000000006044820152606401610098565b6001600160a01b03811661014d5760405162461bcd60e51b815260206004820152601460248201527f496e76616c696420506f6f6c20616464726573730000000000000000000000006044820152606401610098565b6001600160a01b0380841660805282811660a052811660c052610171600033610572565b5061019c7f7cacebec1f49b9ad7068665591fac458508c6ad9da1f804163a324b7d985174e33610572565b50506040805180820182526019815262093a8060208083019182526000808052600380835293517f3617319a054d772f909f7c479a2cebe5066e836a939412e32403c99029b92eff5591517f3617319a054d772f909f7c479a2cebe5066e836a939412e32403c99029b92f0055835180850185526078815262278d00818301908152600180855285845291517fa15bc60c955c405d20d9149c709e2460f1c2d9a497496a7f46004d1772c3054c55517fa15bc60c955c405d20d9149c709e2460f1c2d9a497496a7f46004d1772c3054d558451808601865261017181526276a7008184019081526002855285845290517fc3a24b0501bd2c13a7e57f2db4369ec4c223447539fc0724a9d55ac4a06ebd4d55517fc3a24b0501bd2c13a7e57f2db4369ec4c223447539fc0724a9d55ac4a06ebd4e55845180860186526102e4815262ed4e0081840190815285855285845290517fcbc4e5fb02c3d1de23a9f1e014b4d2ee5aeaea9505df5e855c9210bf472495af55517fcbc4e5fb02c3d1de23a9f1e014b4d2ee5aeaea9505df5e855c9210bf472495b055845180860186526105dc81526301e13380818401908152600480865295845290517f83ec6a1f0257b830b5e016457c9cf1435391bf56cc98f369a58a54fe9377246555517f83ec6a1f0257b830b5e016457c9cf1435391bf56cc98f369a58a54fe9377246655845161012081018652838152918201838152948201838152606083018481526080840185815260a0850186815260c0860187815260e0870188815261010088018781528a549788018b559990985295517f8a35acfbc15ff81a39ae7d344fd709f28e8600b4aa8c65c6b64bfe7fe36bd19b60099096029586015597517f8a35acfbc15ff81a39ae7d344fd709f28e8600b4aa8c65c6b64bfe7fe36bd19c850180546001600160a01b0319166001600160a01b0390921691909117905591517f8a35acfbc15ff81a39ae7d344fd709f28e8600b4aa8c65c6b64bfe7fe36bd19d840155517f8a35acfbc15ff81a39ae7d344fd709f28e8600b4aa8c65c6b64bfe7fe36bd19e830155517f8a35acfbc15ff81a39ae7d344fd709f28e8600b4aa8c65c6b64bfe7fe36bd19f82015593517f8a35acfbc15ff81a39ae7d344fd709f28e8600b4aa8c65c6b64bfe7fe36bd1a0850155517f8a35acfbc15ff81a39ae7d344fd709f28e8600b4aa8c65c6b64bfe7fe36bd1a1840155517f8a35acfbc15ff81a39ae7d344fd709f28e8600b4aa8c65c6b64bfe7fe36bd1a2830155517f8a35acfbc15ff81a39ae7d344fd709f28e8600b4aa8c65c6b64bfe7fe36bd1a3909101805460ff19169115159190911790555061067d9050565b6000828152602081815260408083206001600160a01b038516845290915281205460ff16610614576000838152602081815260408083206001600160a01b03861684529091529020805460ff191660011790556105cc3390565b6001600160a01b0316826001600160a01b0316847f2f8788117e7eff1d82e926ec794901d17c78024a50270940304540a733656f0d60405160405180910390a4506001610618565b5060005b92915050565b80516001600160a01b038116811461063557600080fd5b919050565b60008060006060848603121561064f57600080fd5b6106588461061e565b92506106666020850161061e565b91506106746040850161061e565b90509250925092565b60805160a05160c0516134cd61070760003960008181610401015281816122370152612575015260008181610247015281816105bd015281816106250152818161070301528181610cf901528181611899015281816120e001526121fb01526000818161030b015281816107310152818161077501528181610df301526119a101526134cd6000f3fe608060405234801561001057600080fd5b50600436106101da5760003560e01c80635f1c17c01161010457806394125468116100a2578063d547741f11610071578063d547741f14610486578063e66ab18f14610499578063e85bceff146104ac578063ec157782146104d357600080fd5b8063941254681461045a578063973ccf0e14610463578063997d9c4014610476578063a217fddf1461047e57600080fd5b8063897b25f2116100de578063897b25f2146103e15780638dee8cad146103f4578063902609ed146103fc57806391d148541461042357600080fd5b80635f1c17c01461035857806373954e79146103b95780638456cb59146103d957600080fd5b80632f2ff15d1161017c5780634dede3de1161014b5780634dede3de14610306578063508637711461032d57806354ca790e146103445780635c975abb1461034d57600080fd5b80632f2ff15d146102c55780632f6c1070146102d857806336568abe146102eb5780633f4ba83a146102fe57600080fd5b80631c08c08e116101b85780631c08c08e1461022f5780631f6a63301461024257806322ea915f14610281578063248a9ca3146102a257600080fd5b806301ffc9a7146101df5780630d86419a1461020757806314308bda1461021c575b600080fd5b6101f26101ed366004612e09565b61050f565b60405190151581526020015b60405180910390f35b61021a610215366004612e60565b6105a8565b005b61021a61022a366004612ed8565b6107e4565b61021a61023d366004612f7e565b610a0d565b6102697f000000000000000000000000000000000000000000000000000000000000000081565b6040516001600160a01b0390911681526020016101fe565b61029461028f366004612fab565b610c24565b6040519081526020016101fe565b6102946102b0366004612f7e565b60009081526020819052604090206001015490565b61021a6102d3366004612fd7565b6110a8565b61021a6102e6366004612f7e565b6110d3565b61021a6102f9366004612fd7565b6111b7565b61021a611203565b6102697f000000000000000000000000000000000000000000000000000000000000000081565b610335611216565b6040516101fe93929190613072565b61029460075481565b60025460ff166101f2565b61036b610366366004612f7e565b6114e1565b60408051998a526001600160a01b0390981660208a0152968801959095526060870193909352608086019190915260a085015260c084015260e08301521515610100820152610120016101fe565b6103cc6103c7366004613116565b611549565b6040516101fe9190613133565b61021a6117e5565b6102946103ef366004612fab565b6117f8565b6103cc611be8565b6102697f000000000000000000000000000000000000000000000000000000000000000081565b6101f2610431366004612fd7565b6000918252602082815260408084206001600160a01b0393909316845291905290205460ff1690565b61029460085481565b610269610471366004612f7e565b611df9565b600554610294565b610294600081565b61021a610494366004612fd7565b611e23565b61021a6104a73660046131dc565b611e48565b6102947f7cacebec1f49b9ad7068665591fac458508c6ad9da1f804163a324b7d985174e81565b6104fa6104e136600461320f565b6003602052600090815260409020805460019091015482565b604080519283526020830191909152016101fe565b60007fffffffff0000000000000000000000000000000000000000000000000000000082167f7965db0b0000000000000000000000000000000000000000000000000000000014806105a257507f01ffc9a7000000000000000000000000000000000000000000000000000000007fffffffff000000000000000000000000000000000000000000000000000000008316145b92915050565b60006105b381611f7c565b6105bb611f86565b7f00000000000000000000000000000000000000000000000000000000000000006001600160a01b0316836001600160a01b03160361072f576007546040517f70a082310000000000000000000000000000000000000000000000000000000081523060048201527f00000000000000000000000000000000000000000000000000000000000000006001600160a01b0316906370a0823190602401602060405180830381865afa158015610674573d6000803e3d6000fd5b505050506040513d601f19601f82011682018060405250810190610698919061322a565b6106a29190613272565b8211156106f65760405162461bcd60e51b815260206004820152601f60248201527f43616e6e6f7420776974686472617720636f6d6d6974746564205052414e410060448201526064015b60405180910390fd5b61072a6001600160a01b037f0000000000000000000000000000000000000000000000000000000000000000163384611fc5565b505050565b7f00000000000000000000000000000000000000000000000000000000000000006001600160a01b0316836001600160a01b03160361079c5761072a6001600160a01b037f0000000000000000000000000000000000000000000000000000000000000000163384611fc5565b60405162461bcd60e51b815260206004820152601f60248201527f43616e206f6e6c79207769746864726177205052414e41206f7220574254430060448201526064016106ed565b7f7cacebec1f49b9ad7068665591fac458508c6ad9da1f804163a324b7d985174e61080e81611f7c565b610816611f86565b858414801561082457508582145b6108705760405162461bcd60e51b815260206004820152601860248201527f4172726179206c656e67746873206d757374206d61746368000000000000000060448201526064016106ed565b60005b86811015610a0357600084848381811061088f5761088f613285565b90506020020135116108e35760405162461bcd60e51b815260206004820152601f60248201527f4475726174696f6e206d7573742062652067726561746572207468616e20300060448201526064016106ed565b6113888686838181106108f8576108f8613285565b90506020020135111561094d5760405162461bcd60e51b815260206004820152601660248201527f526174652063616e6e6f7420657863656564203530250000000000000000000060448201526064016106ed565b604051806040016040528087878481811061096a5761096a613285565b90506020020135815260200185858481811061098857610988613285565b90506020020135815250600360008a8a858181106109a8576109a8613285565b90506020020160208101906109bd919061320f565b60048111156109ce576109ce613007565b60048111156109df576109df613007565b81526020808201929092526040016000208251815591015160019182015501610873565b5050505050505050565b610a15612039565b610a1d611f86565b600081118015610a2e575060045481105b610a7a5760405162461bcd60e51b815260206004820152600f60248201527f496e76616c696420626f6e64204944000000000000000000000000000000000060448201526064016106ed565b600060048281548110610a8f57610a8f613285565b600091825260209091206001600990920201908101549091506001600160a01b03163314610aff5760405162461bcd60e51b815260206004820152600e60248201527f4e6f7420626f6e64206f776e657200000000000000000000000000000000000060448201526064016106ed565b80600601544211610b525760405162461bcd60e51b815260206004820152601660248201527f4e6f206e657720616d6f756e7420746f20636c61696d0000000000000000000060448201526064016106ed565b600881015460ff1615610ba75760405162461bcd60e51b815260206004820152601260248201527f426f6e642066756c6c7920636c61696d6564000000000000000000000000000060448201526064016106ed565b600081600401544210610bc457610bbd8261207c565b9050610bd0565b610bcd8261214b565b90505b426006830155604080518481523360208201529081018290527f1f8fc880633617d30d8a0ccf0e892d93909581963a8f6e05e0d573c551e0ddab9060600160405180910390a15050610c2160018055565b50565b6000610c2e612039565b610c36611f86565b6000610c42848461222d565b9050600854811015610cbc5760405162461bcd60e51b815260206004820152602560248201527f43616c63756c61746564205052414e4120616d6f756e742062656c6f77206d6960448201527f6e696d756d00000000000000000000000000000000000000000000000000000060648201526084016106ed565b6007546040517f70a08231000000000000000000000000000000000000000000000000000000008152306004820152600091906001600160a01b037f000000000000000000000000000000000000000000000000000000000000000016906370a0823190602401602060405180830381865afa158015610d40573d6000803e3d6000fd5b505050506040513d601f19601f82011682018060405250810190610d64919061322a565b610d6e9190613272565b905080821115610de65760405162461bcd60e51b815260206004820152602660248201527f4e6f7420656e6f756768205052414e4120617661696c61626c6520696e20747260448201527f656173757279000000000000000000000000000000000000000000000000000060648201526084016106ed565b610e1b6001600160a01b037f000000000000000000000000000000000000000000000000000000000000000016333088612376565b6004805460408051610120810182528281523360208201529081018890526060810185905290919060808101600360008985811115610e5c57610e5c613007565b6004811115610e6d57610e6d613007565b81526020019081526020016000206001015442610e8a91906132b4565b815242602080830182905260408084019290925260006060808501829052608094850182905286546001808201895597835283832087516009909202019081559286015196830180547fffffffffffffffffffffffff0000000000000000000000000000000000000000166001600160a01b039098169790971790965591840151600282015593830151600385015590820151600484015560a0820151600584015560c0820151600684015560e0820151600780850191909155610100909201516008909301805460ff1916931515939093179092558054859290610f709084906132b4565b90915550503360009081526006602052604090205460ff16610fff576005805460018181019092557f036b6384b5eca791c62761152d0c79bb0604c104a5fb6f4eb0703f3154bb3db00180547fffffffffffffffffffffffff000000000000000000000000000000000000000016339081179091556000908152600660205260409020805460ff191690911790555b7f4acca98f5286518840da1d7d072ad2e53f7eecb910037434e4d3aa8cb47d8b2c81338886600360008b600481111561103a5761103a613007565b600481111561104b5761104b613007565b8152602001908152602001600020600101544261106891906132b4565b604080519586526001600160a01b039094166020860152928401919091526060830152608082015260a00160405180910390a1925050506105a260018055565b6000828152602081905260409020600101546110c381611f7c565b6110cd83836123af565b50505050565b7f7cacebec1f49b9ad7068665591fac458508c6ad9da1f804163a324b7d985174e6110fd81611f7c565b611105611f86565b6000821161117b5760405162461bcd60e51b815260206004820152602560248201527f4d696e2062757920616d6f756e74206d7573742062652067726561746572207460448201527f68616e203000000000000000000000000000000000000000000000000000000060648201526084016106ed565b60088290556040518281527f056d0d7131ce43ec92a6eebc7ccd9422fafbcf8e490fbe0bdd8a3c84dfb9128c9060200160405180910390a15050565b6001600160a01b03811633146111f9576040517f6697b23200000000000000000000000000000000000000000000000000000000815260040160405180910390fd5b61072a8282612459565b600061120e81611f7c565b610c216124dc565b60408051600580825260c0820190925260609182918291600091906020820160a080368337505060408051600580825260c0820190925292935060009291506020820160a080368337505060408051600580825260c0820190925292935060009291506020820160a08036833701905050905060008360008151811061129e5761129e613285565b602002602001019060048111156112b7576112b7613007565b908160048111156112ca576112ca613007565b815250506001836001815181106112e3576112e3613285565b602002602001019060048111156112fc576112fc613007565b9081600481111561130f5761130f613007565b8152505060028360028151811061132857611328613285565b6020026020010190600481111561134157611341613007565b9081600481111561135457611354613007565b8152505060038360038151811061136d5761136d613285565b6020026020010190600481111561138657611386613007565b9081600481111561139957611399613007565b815250506004836004815181106113b2576113b2613285565b602002602001019060048111156113cb576113cb613007565b908160048111156113de576113de613007565b90525060005b60058110156114d4576003600085838151811061140357611403613285565b6020026020010151600481111561141c5761141c613007565b600481111561142d5761142d613007565b81526020019081526020016000206000015483828151811061145157611451613285565b6020026020010181815250506003600085838151811061147357611473613285565b6020026020010151600481111561148c5761148c613007565b600481111561149d5761149d613007565b8152602001908152602001600020600101548282815181106114c1576114c1613285565b60209081029190910101526001016113e4565b5091959094509092509050565b600481815481106114f157600080fd5b60009182526020909120600990910201805460018201546002830154600384015460048501546005860154600687015460078801546008909801549698506001600160a01b0390951696939592949193909260ff1689565b6060600060015b6004548110156115e357836001600160a01b03166004828154811061157757611577613285565b60009182526020909120600160099092020101546001600160a01b03161480156115c85750600481815481106115af576115af613285565b600091825260209091206008600990920201015460ff16155b156115db57816115d7816132f6565b9250505b600101611550565b5060008167ffffffffffffffff8111156115ff576115ff6132c7565b60405190808252806020026020018201604052801561168a57816020015b6116776040518061012001604052806000815260200160006001600160a01b031681526020016000815260200160008152602001600081526020016000815260200160008152602001600081526020016000151581525090565b81526020019060019003908161161d5790505b509050600060015b6004548110156117db57856001600160a01b0316600482815481106116b9576116b9613285565b60009182526020909120600160099092020101546001600160a01b031614801561170a5750600481815481106116f1576116f1613285565b600091825260209091206008600990920201015460ff16155b156117d3576004818154811061172257611722613285565b6000918252602091829020604080516101208101825260099093029091018054835260018101546001600160a01b0316938301939093526002830154908201526003820154606082015260048201546080820152600582015460a0820152600682015460c0820152600782015460e082015260089091015460ff16151561010082015283518490849081106117b9576117b9613285565b602002602001018190525081806117cf906132f6565b9250505b600101611692565b5090949350505050565b60006117f081611f7c565b610c2161252e565b6000611802612039565b61180a611f86565b60085483101561185c5760405162461bcd60e51b815260206004820152601a60248201527f5052414e4120616d6f756e742062656c6f77206d696e696d756d00000000000060448201526064016106ed565b6007546040517f70a08231000000000000000000000000000000000000000000000000000000008152306004820152600091906001600160a01b037f000000000000000000000000000000000000000000000000000000000000000016906370a0823190602401602060405180830381865afa1580156118e0573d6000803e3d6000fd5b505050506040513d601f19601f82011682018060405250810190611904919061322a565b61190e9190613272565b9050808411156119865760405162461bcd60e51b815260206004820152602660248201527f4e6f7420656e6f756768205052414e4120617661696c61626c6520696e20747260448201527f656173757279000000000000000000000000000000000000000000000000000060648201526084016106ed565b6000611992858561256b565b90506119c96001600160a01b037f000000000000000000000000000000000000000000000000000000000000000016333084612376565b6004805460408051610120810182528281523360208201529081018490526060810188905290919060808101600360008985811115611a0a57611a0a613007565b6004811115611a1b57611a1b613007565b81526020019081526020016000206001015442611a3891906132b4565b815242602080830182905260408084019290925260006060808501829052608094850182905286546001808201895597835283832087516009909202019081559286015196830180547fffffffffffffffffffffffff0000000000000000000000000000000000000000166001600160a01b039098169790971790965591840151600282015593830151600385015590820151600484015560a0820151600584015560c0820151600684015560e0820151600780850191909155610100909201516008909301805460ff1916931515939093179092558054889290611b1e9084906132b4565b90915550503360009081526006602052604090205460ff16611bad576005805460018181019092557f036b6384b5eca791c62761152d0c79bb0604c104a5fb6f4eb0703f3154bb3db00180547fffffffffffffffffffffffff000000000000000000000000000000000000000016339081179091556000908152600660205260409020805460ff191690911790555b7f4acca98f5286518840da1d7d072ad2e53f7eecb910037434e4d3aa8cb47d8b2c81338489600360008b600481111561103a5761103a613007565b6060600060015b600454811015611c3d5760048181548110611c0c57611c0c613285565b600091825260209091206008600990920201015460ff16611c355781611c31816132f6565b9250505b600101611bef565b5060008167ffffffffffffffff811115611c5957611c596132c7565b604051908082528060200260200182016040528015611ce457816020015b611cd16040518061012001604052806000815260200160006001600160a01b031681526020016000815260200160008152602001600081526020016000815260200160008152602001600081526020016000151581525090565b815260200190600190039081611c775790505b509050600060015b600454811015611df05760048181548110611d0957611d09613285565b600091825260209091206008600990920201015460ff16611de85760048181548110611d3757611d37613285565b6000918252602091829020604080516101208101825260099093029091018054835260018101546001600160a01b0316938301939093526002830154908201526003820154606082015260048201546080820152600582015460a0820152600682015460c0820152600782015460e082015260089091015460ff1615156101008201528351849084908110611dce57611dce613285565b60200260200101819052508180611de4906132f6565b9250505b600101611cec565b50909392505050565b60058181548110611e0957600080fd5b6000918252602090912001546001600160a01b0316905081565b600082815260208190526040902060010154611e3e81611f7c565b6110cd8383612459565b7f7cacebec1f49b9ad7068665591fac458508c6ad9da1f804163a324b7d985174e611e7281611f7c565b611e7a611f86565b60008211611eca5760405162461bcd60e51b815260206004820152601f60248201527f4475726174696f6e206d7573742062652067726561746572207468616e20300060448201526064016106ed565b611388831115611f1c5760405162461bcd60e51b815260206004820152601660248201527f526174652063616e6e6f7420657863656564203530250000000000000000000060448201526064016106ed565b60405180604001604052808481526020018381525060036000866004811115611f4757611f47613007565b6004811115611f5857611f58613007565b81526020808201929092526040016000208251815591015160019091015550505050565b610c2181336126ac565b60025460ff1615611fc3576040517fd93c066500000000000000000000000000000000000000000000000000000000815260040160405180910390fd5b565b6040516001600160a01b0383811660248301526044820183905261072a91859182169063a9059cbb906064015b604051602081830303815290604052915060e01b6020820180517bffffffffffffffffffffffffffffffffffffffffffffffffffffffff838183161783525050505061271c565b600260015403612075576040517f3ee5aeb500000000000000000000000000000000000000000000000000000000815260040160405180910390fd5b6002600155565b600080826007015483600301546120939190613272565b905080156121095780600760008282546120ad9190613272565b92505081905550808360070160008282546120c891906132b4565b90915550506001830154612109906001600160a01b037f00000000000000000000000000000000000000000000000000000000000000008116911683611fc5565b60088301805460ff19166001908117909155830154612130906001600160a01b03166127a6565b6105a25760018301546105a2906001600160a01b0316612842565b600080826005015483600401546121629190613272565b905060008360050154426121769190613272565b9050600061218985600301548385612a6e565b905060008560070154821161219f5760006121ae565b60078601546121ae9083613272565b905080156122245780600760008282546121c89190613272565b92505081905550808660070160008282546121e391906132b4565b90915550506001860154612224906001600160a01b037f00000000000000000000000000000000000000000000000000000000000000008116911683611fc5565b95945050505050565b600080600061225b7f0000000000000000000000000000000000000000000000000000000000000000612c07565b90925090506000605061226f87604f61332e565b6122799190613345565b905060006003600087600481111561229357612293613007565b60048111156122a4576122a4613007565b8152602081019190915260400160009081205491506122c582612710613272565b6122d18461271061332e565b6122db9190613345565b905060006122f385836122ee818a6132b4565b612a6e565b905084811061236a5760405162461bcd60e51b815260206004820152602760248201527f43616c63756c61746564205052414e4120616d6f756e7420657863656564732060448201527f726573657276650000000000000000000000000000000000000000000000000060648201526084016106ed565b98975050505050505050565b6040516001600160a01b0384811660248301528381166044830152606482018390526110cd9186918216906323b872dd90608401611ff2565b6000828152602081815260408083206001600160a01b038516845290915281205460ff16612451576000838152602081815260408083206001600160a01b03861684529091529020805460ff191660011790556124093390565b6001600160a01b0316826001600160a01b0316847f2f8788117e7eff1d82e926ec794901d17c78024a50270940304540a733656f0d60405160405180910390a45060016105a2565b5060006105a2565b6000828152602081815260408083206001600160a01b038516845290915281205460ff1615612451576000838152602081815260408083206001600160a01b0386168085529252808320805460ff1916905551339286917ff6391f5c32d9c69d2a47ea670b442974b53935d1edc7fd64eb21e047a839171b9190a45060016105a2565b6124e4612dcd565b6002805460ff191690557f5db9ee0a495bf2e6ff9c91a7834c1ba4fdd244a5e8aa4e537bd38aeae4b073aa335b6040516001600160a01b03909116815260200160405180910390a1565b612536611f86565b6002805460ff191660011790557f62e78cea01bee320cd4e420270b5ea74000d11b0c9f74754ebdbfc544b05a2586125113390565b60008060006125997f0000000000000000000000000000000000000000000000000000000000000000612c07565b915091508085106126125760405162461bcd60e51b815260206004820152602b60248201527f5052414e4120616d6f756e74206d757374206265206c657373207468616e207060448201527f72616e615265736572766500000000000000000000000000000000000000000060648201526084016106ed565b600061262383876122ee8186613272565b905060006003600087600481111561263d5761263d613007565b600481111561264e5761264e613007565b8152602081019190915260400160009081205491506127106126708382613272565b61267a908561332e565b6126849190613345565b90506000604f61269583605061332e565b61269f9190613345565b9998505050505050505050565b6000828152602081815260408083206001600160a01b038516845290915290205460ff16612718576040517fe2517d3f0000000000000000000000000000000000000000000000000000000081526001600160a01b0382166004820152602481018390526044016106ed565b5050565b600080602060008451602086016000885af18061273f576040513d6000823e3d81fd5b50506000513d91508115612757578060011415612764565b6001600160a01b0384163b155b156110cd576040517f5274afe70000000000000000000000000000000000000000000000000000000081526001600160a01b03851660048201526024016106ed565b600060015b60045481101561283957826001600160a01b0316600482815481106127d2576127d2613285565b60009182526020909120600160099092020101546001600160a01b031614801561282357506004818154811061280a5761280a613285565b600091825260209091206008600990920201015460ff16155b156128315750600192915050565b6001016127ab565b50600092915050565b6001600160a01b03811660009081526006602052604090205460ff166128aa5760405162461bcd60e51b815260206004820152601960248201527f55736572206973206e6f74206120626f6e6420686f6c6465720000000000000060448201526064016106ed565b60008060005b60055481101561290557836001600160a01b0316600582815481106128d7576128d7613285565b6000918252602090912001546001600160a01b0316036128fd5780925060019150612905565b6001016128b0565b50806129535760405162461bcd60e51b815260206004820152601d60248201527f55736572206e6f7420666f756e6420696e20626f6e64486f6c6465727300000060448201526064016106ed565b60055460009061296590600190613272565b90508083146129dc576005818154811061298157612981613285565b600091825260209091200154600580546001600160a01b0390921691859081106129ad576129ad613285565b9060005260206000200160006101000a8154816001600160a01b0302191690836001600160a01b031602179055505b60058054806129ed576129ed613380565b6000828152602080822083017fffffffffffffffffffffffffffffffffffffffffffffffffffffffffffffffff90810180547fffffffffffffffffffffffff00000000000000000000000000000000000000001690559092019092556001600160a01b03959095168152600690945250506040909120805460ff1916905550565b600080807fffffffffffffffffffffffffffffffffffffffffffffffffffffffffffffffff85870985870292508281108382030391505080600003612ac55760008411612aba57600080fd5b508290049050612c00565b808411612ad157600080fd5b6000848688098084039381119092039190506000612af1861960016132b4565b8616958690049593849004936000819003046001019050612b12818461332e565b909317926000612b2387600361332e565b6002189050612b32818861332e565b612b3d906002613272565b612b47908261332e565b9050612b53818861332e565b612b5e906002613272565b612b68908261332e565b9050612b74818861332e565b612b7f906002613272565b612b89908261332e565b9050612b95818861332e565b612ba0906002613272565b612baa908261332e565b9050612bb6818861332e565b612bc1906002613272565b612bcb908261332e565b9050612bd7818861332e565b612be2906002613272565b612bec908261332e565b9050612bf8818661332e565b955050505050505b9392505050565b60008060008390506000816001600160a01b0316633850c7bd6040518163ffffffff1660e01b815260040160e060405180830381865afa158015612c4f573d6000803e3d6000fd5b505050506040513d601f19601f82011682018060405250810190612c7391906133c1565b5050505050506001600160a01b031690506000826001600160a01b0316631a6865026040518163ffffffff1660e01b8152600401602060405180830381865afa158015612cc4573d6000803e3d6000fd5b505050506040513d601f19601f82011682018060405250810190612ce89190613465565b6fffffffffffffffffffffffffffffffff16905060008211612d4c5760405162461bcd60e51b815260206004820152600d60248201527f496e76616c69642070726963650000000000000000000000000000000000000060448201526064016106ed565b60008111612d9c5760405162461bcd60e51b815260206004820152600c60248201527f4e6f206c6971756964697479000000000000000000000000000000000000000060448201526064016106ed565b6c01000000000000000000000000612db5828285612a6e565b9550612dc2828483612a6e565b945050505050915091565b60025460ff16611fc3576040517f8dfc202b00000000000000000000000000000000000000000000000000000000815260040160405180910390fd5b600060208284031215612e1b57600080fd5b81357fffffffff0000000000000000000000000000000000000000000000000000000081168114612c0057600080fd5b6001600160a01b0381168114610c2157600080fd5b60008060408385031215612e7357600080fd5b8235612e7e81612e4b565b946020939093013593505050565b60008083601f840112612e9e57600080fd5b50813567ffffffffffffffff811115612eb657600080fd5b6020830191508360208260051b8501011115612ed157600080fd5b9250929050565b60008060008060008060608789031215612ef157600080fd5b863567ffffffffffffffff811115612f0857600080fd5b612f1489828a01612e8c565b909750955050602087013567ffffffffffffffff811115612f3457600080fd5b612f4089828a01612e8c565b909550935050604087013567ffffffffffffffff811115612f6057600080fd5b612f6c89828a01612e8c565b979a9699509497509295939492505050565b600060208284031215612f9057600080fd5b5035919050565b803560058110612fa657600080fd5b919050565b60008060408385031215612fbe57600080fd5b82359150612fce60208401612f97565b90509250929050565b60008060408385031215612fea57600080fd5b823591506020830135612ffc81612e4b565b809150509250929050565b7f4e487b7100000000000000000000000000000000000000000000000000000000600052602160045260246000fd5b600081518084526020840193506020830160005b8281101561306857815186526020958601959091019060010161304a565b5093949350505050565b6060808252845190820181905260009060208601906080840190835b818110156130e3578351600581106130cf577f4e487b7100000000000000000000000000000000000000000000000000000000600052602160045260246000fd5b83526020938401939092019160010161308e565b505083810360208501526130f78187613036565b915050828103604084015261310c8185613036565b9695505050505050565b60006020828403121561312857600080fd5b8135612c0081612e4b565b602080825282518282018190526000918401906040840190835b818110156131d1578351805184526001600160a01b03602082015116602085015260408101516040850152606081015160608501526080810151608085015260a081015160a085015260c081015160c085015260e081015160e08501526101008101511515610100850152506101208301925060208401935060018101905061314d565b509095945050505050565b6000806000606084860312156131f157600080fd5b6131fa84612f97565b95602085013595506040909401359392505050565b60006020828403121561322157600080fd5b612c0082612f97565b60006020828403121561323c57600080fd5b5051919050565b7f4e487b7100000000000000000000000000000000000000000000000000000000600052601160045260246000fd5b818103818111156105a2576105a2613243565b7f4e487b7100000000000000000000000000000000000000000000000000000000600052603260045260246000fd5b808201808211156105a2576105a2613243565b7f4e487b7100000000000000000000000000000000000000000000000000000000600052604160045260246000fd5b60007fffffffffffffffffffffffffffffffffffffffffffffffffffffffffffffffff820361332757613327613243565b5060010190565b80820281158282048414176105a2576105a2613243565b60008261337b577f4e487b7100000000000000000000000000000000000000000000000000000000600052601260045260246000fd5b500490565b7f4e487b7100000000000000000000000000000000000000000000000000000000600052603160045260246000fd5b805161ffff81168114612fa657600080fd5b600080600080600080600060e0888a0312156133dc57600080fd5b87516133e781612e4b565b8097505060208801518060020b81146133ff57600080fd5b955061340d604089016133af565b945061341b606089016133af565b9350613429608089016133af565b925060a088015160ff8116811461343f57600080fd5b60c0890151909250801515811461345557600080fd5b8091505092959891949750929550565b60006020828403121561347757600080fd5b81516fffffffffffffffffffffffffffffffff81168114612c0057600080fdfea2646970667358221220fb02a8668037e11121176e02da20ed103c4df18f653fa20a72b8fc84b273c69b64736f6c634300081c0033",
  "linkReferences": {},
  "deployedLinkReferences": {}
}