{
  "_format": "hh-sol-artifact-1",
  "contractName": "SellPranaBond",
  "sourceName": "contracts/SellPranaBond.sol",
  "abi": [
    {
      "inputs": [
        {
          "internalType": "address",
          "name": "_wbtc",
          "type": "address"
        },
        {
          "internalType": "address",
          "name": "_prana",
          "type": "address"
        },
        {
          "internalType": "address",
          "name": "_uniswapV3PoolAddress",
          "type": "address"
        }
      ],
      "stateMutability": "nonpayable",
      "type": "constructor"
    },
    {
      "inputs": [],
      "name": "AccessControlBadConfirmation",
      "type": "error"
    },
    {
      "inputs": [
        {
          "internalType": "address",
          "name": "account",
          "type": "address"
        },
        {
          "internalType": "bytes32",
          "name": "neededRole",
          "type": "bytes32"
        }
      ],
      "name": "AccessControlUnauthorizedAccount",
      "type": "error"
    },
    {
      "inputs": [],
      "name": "EnforcedPause",
      "type": "error"
    },
    {
      "inputs": [],
      "name": "ExpectedPause",
      "type": "error"
    },
    {
      "inputs": [],
      "name": "ReentrancyGuardReentrantCall",
      "type": "error"
    },
    {
      "inputs": [
        {
          "internalType": "address",
          "name": "token",
          "type": "address"
        }
      ],
      "name": "SafeERC20FailedOperation",
      "type": "error"
    },
    {
      "anonymous": false,
      "inputs": [
        {
          "indexed": false,
          "internalType": "uint256",
          "name": "bondId",
          "type": "uint256"
        },
        {
          "indexed": false,
          "internalType": "address",
          "name": "owner",
          "type": "address"
        },
        {
          "indexed": false,
          "internalType": "uint256",
          "name": "wbtcAmount",
          "type": "uint256"
        }
      ],
      "name": "BondClaimed",
      "type": "event"
    },
    {
      "anonymous": false,
      "inputs": [
        {
          "indexed": false,
          "internalType": "uint256",
          "name": "bondId",
          "type": "uint256"
        },
        {
          "indexed": false,
          "internalType": "address",
          "name": "owner",
          "type": "address"
        },
        {
          "indexed": false,
          "internalType": "uint256",
          "name": "pranaAmount",
          "type": "uint256"
        },
        {
          "indexed": false,
          "internalType": "uint256",
          "name": "wbtcAmount",
          "type": "uint256"
        },
        {
          "indexed": false,
          "internalType": "uint256",
          "name": "maturityTime",
          "type": "uint256"
        }
      ],
      "name": "BondCreated",
      "type": "event"
    },
    {
      "anonymous": false,
      "inputs": [
        {
          "indexed": false,
          "internalType": "uint256",
          "name": "newMinSellAmount",
          "type": "uint256"
        }
      ],
      "name": "MinSellAmountUpdated",
      "type": "event"
    },
    {
      "anonymous": false,
      "inputs": [
        {
          "indexed": false,
          "internalType": "address",
          "name": "account",
          "type": "address"
        }
      ],
      "name": "Paused",
      "type": "event"
    },
    {
      "anonymous": false,
      "inputs": [
        {
          "indexed": true,
          "internalType": "bytes32",
          "name": "role",
          "type": "bytes32"
        },
        {
          "indexed": true,
          "internalType": "bytes32",
          "name": "previousAdminRole",
          "type": "bytes32"
        },
        {
          "indexed": true,
          "internalType": "bytes32",
          "name": "newAdminRole",
          "type": "bytes32"
        }
      ],
      "name": "RoleAdminChanged",
      "type": "event"
    },
    {
      "anonymous": false,
      "inputs": [
        {
          "indexed": true,
          "internalType": "bytes32",
          "name": "role",
          "type": "bytes32"
        },
        {
          "indexed": true,
          "internalType": "address",
          "name": "account",
          "type": "address"
        },
        {
          "indexed": true,
          "internalType": "address",
          "name": "sender",
          "type": "address"
        }
      ],
      "name": "RoleGranted",
      "type": "event"
    },
    {
      "anonymous": false,
      "inputs": [
        {
          "indexed": true,
          "internalType": "bytes32",
          "name": "role",
          "type": "bytes32"
        },
        {
          "indexed": true,
          "internalType": "address",
          "name": "account",
          "type": "address"
        },
        {
          "indexed": true,
          "internalType": "address",
          "name": "sender",
          "type": "address"
        }
      ],
      "name": "RoleRevoked",
      "type": "event"
    },
    {
      "anonymous": false,
      "inputs": [
        {
          "indexed": false,
          "internalType": "address",
          "name": "account",
          "type": "address"
        }
      ],
      "name": "Unpaused",
      "type": "event"
    },
    {
      "inputs": [],
      "name": "BOND_MANAGER_ROLE",
      "outputs": [
        {
          "internalType": "bytes32",
          "name": "",
          "type": "bytes32"
        }
      ],
      "stateMutability": "view",
      "type": "function"
    },
    {
      "inputs": [],
      "name": "DEFAULT_ADMIN_ROLE",
      "outputs": [
        {
          "internalType": "bytes32",
          "name": "",
          "type": "bytes32"
        }
      ],
      "stateMutability": "view",
      "type": "function"
    },
    {
      "inputs": [],
      "name": "PRANA",
      "outputs": [
        {
          "internalType": "address",
          "name": "",
          "type": "address"
        }
      ],
      "stateMutability": "view",
      "type": "function"
    },
    {
      "inputs": [],
      "name": "WBTC",
      "outputs": [
        {
          "internalType": "address",
          "name": "",
          "type": "address"
        }
      ],
      "stateMutability": "view",
      "type": "function"
    },
    {
      "inputs": [
        {
          "internalType": "uint256",
          "name": "",
          "type": "uint256"
        }
      ],
      "name": "bondHolders",
      "outputs": [
        {
          "internalType": "address",
          "name": "",
          "type": "address"
        }
      ],
      "stateMutability": "view",
      "type": "function"
    },
    {
      "inputs": [
        {
          "internalType": "enum SellPranaBond.BondTerm",
          "name": "",
          "type": "uint8"
        }
      ],
      "name": "bondRates",
      "outputs": [
        {
          "internalType": "uint256",
          "name": "rate",
          "type": "uint256"
        },
        {
          "internalType": "uint256",
          "name": "duration",
          "type": "uint256"
        }
      ],
      "stateMutability": "view",
      "type": "function"
    },
    {
      "inputs": [
        {
          "internalType": "uint256",
          "name": "",
          "type": "uint256"
        }
      ],
      "name": "bonds",
      "outputs": [
        {
          "internalType": "uint256",
          "name": "id",
          "type": "uint256"
        },
        {
          "internalType": "address",
          "name": "owner",
          "type": "address"
        },
        {
          "internalType": "uint256",
          "name": "pranaAmount",
          "type": "uint256"
        },
        {
          "internalType": "uint256",
          "name": "wbtcAmount",
          "type": "uint256"
        },
        {
          "internalType": "uint256",
          "name": "maturityTime",
          "type": "uint256"
        },
        {
          "internalType": "uint256",
          "name": "creationTime",
          "type": "uint256"
        },
        {
          "internalType": "uint256",
          "name": "lastClaimTime",
          "type": "uint256"
        },
        {
          "internalType": "uint256",
          "name": "claimedWbtc",
          "type": "uint256"
        },
        {
          "internalType": "bool",
          "name": "claimed",
          "type": "bool"
        }
      ],
      "stateMutability": "view",
      "type": "function"
    },
    {
      "inputs": [
        {
          "internalType": "uint256",
          "name": "pranaAmount",
          "type": "uint256"
        },
        {
          "internalType": "enum SellPranaBond.BondTerm",
          "name": "period",
          "type": "uint8"
        }
      ],
      "name": "calculateWbtcAmount",
      "outputs": [
        {
          "internalType": "uint256",
          "name": "",
          "type": "uint256"
        }
      ],
      "stateMutability": "view",
      "type": "function"
    },
    {
      "inputs": [
        {
          "internalType": "uint256",
          "name": "bondId",
          "type": "uint256"
        }
      ],
      "name": "claimBond",
      "outputs": [],
      "stateMutability": "nonpayable",
      "type": "function"
    },
    {
      "inputs": [],
      "name": "committedWbtc",
      "outputs": [
        {
          "internalType": "uint256",
          "name": "",
          "type": "uint256"
        }
      ],
      "stateMutability": "view",
      "type": "function"
    },
    {
      "inputs": [],
      "name": "getAllActiveBonds",
      "outputs": [
        {
          "components": [
            {
              "internalType": "uint256",
              "name": "id",
              "type": "uint256"
            },
            {
              "internalType": "address",
              "name": "owner",
              "type": "address"
            },
            {
              "internalType": "uint256",
              "name": "pranaAmount",
              "type": "uint256"
            },
            {
              "internalType": "uint256",
              "name": "wbtcAmount",
              "type": "uint256"
            },
            {
              "internalType": "uint256",
              "name": "maturityTime",
              "type": "uint256"
            },
            {
              "internalType": "uint256",
              "name": "creationTime",
              "type": "uint256"
            },
            {
              "internalType": "uint256",
              "name": "lastClaimTime",
              "type": "uint256"
            },
            {
              "internalType": "uint256",
              "name": "claimedWbtc",
              "type": "uint256"
            },
            {
              "internalType": "bool",
              "name": "claimed",
              "type": "bool"
            }
          ],
          "internalType": "struct SellPranaBond.Bond[]",
          "name": "",
          "type": "tuple[]"
        }
      ],
      "stateMutability": "view",
      "type": "function"
    },
    {
      "inputs": [],
      "name": "getAllBondRates",
      "outputs": [
        {
          "internalType": "enum SellPranaBond.BondTerm[]",
          "name": "",
          "type": "uint8[]"
        },
        {
          "internalType": "uint256[]",
          "name": "",
          "type": "uint256[]"
        },
        {
          "internalType": "uint256[]",
          "name": "",
          "type": "uint256[]"
        }
      ],
      "stateMutability": "view",
      "type": "function"
    },
    {
      "inputs": [],
      "name": "getBondHoldersLength",
      "outputs": [
        {
          "internalType": "uint256",
          "name": "",
          "type": "uint256"
        }
      ],
      "stateMutability": "view",
      "type": "function"
    },
    {
      "inputs": [
        {
          "internalType": "bytes32",
          "name": "role",
          "type": "bytes32"
        }
      ],
      "name": "getRoleAdmin",
      "outputs": [
        {
          "internalType": "bytes32",
          "name": "",
          "type": "bytes32"
        }
      ],
      "stateMutability": "view",
      "type": "function"
    },
    {
      "inputs": [
        {
          "internalType": "address",
          "name": "user",
          "type": "address"
        }
      ],
      "name": "getUserActiveBonds",
      "outputs": [
        {
          "components": [
            {
              "internalType": "uint256",
              "name": "id",
              "type": "uint256"
            },
            {
              "internalType": "address",
              "name": "owner",
              "type": "address"
            },
            {
              "internalType": "uint256",
              "name": "pranaAmount",
              "type": "uint256"
            },
            {
              "internalType": "uint256",
              "name": "wbtcAmount",
              "type": "uint256"
            },
            {
              "internalType": "uint256",
              "name": "maturityTime",
              "type": "uint256"
            },
            {
              "internalType": "uint256",
              "name": "creationTime",
              "type": "uint256"
            },
            {
              "internalType": "uint256",
              "name": "lastClaimTime",
              "type": "uint256"
            },
            {
              "internalType": "uint256",
              "name": "claimedWbtc",
              "type": "uint256"
            },
            {
              "internalType": "bool",
              "name": "claimed",
              "type": "bool"
            }
          ],
          "internalType": "struct SellPranaBond.Bond[]",
          "name": "",
          "type": "tuple[]"
        }
      ],
      "stateMutability": "view",
      "type": "function"
    },
    {
      "inputs": [
        {
          "internalType": "bytes32",
          "name": "role",
          "type": "bytes32"
        },
        {
          "internalType": "address",
          "name": "account",
          "type": "address"
        }
      ],
      "name": "grantRole",
      "outputs": [],
      "stateMutability": "nonpayable",
      "type": "function"
    },
    {
      "inputs": [
        {
          "internalType": "bytes32",
          "name": "role",
          "type": "bytes32"
        },
        {
          "internalType": "address",
          "name": "account",
          "type": "address"
        }
      ],
      "name": "hasRole",
      "outputs": [
        {
          "internalType": "bool",
          "name": "",
          "type": "bool"
        }
      ],
      "stateMutability": "view",
      "type": "function"
    },
    {
      "inputs": [],
      "name": "minPranaSellAmount",
      "outputs": [
        {
          "internalType": "uint256",
          "name": "",
          "type": "uint256"
        }
      ],
      "stateMutability": "view",
      "type": "function"
    },
    {
      "inputs": [],
      "name": "pause",
      "outputs": [],
      "stateMutability": "nonpayable",
      "type": "function"
    },
    {
      "inputs": [],
      "name": "paused",
      "outputs": [
        {
          "internalType": "bool",
          "name": "",
          "type": "bool"
        }
      ],
      "stateMutability": "view",
      "type": "function"
    },
    {
      "inputs": [
        {
          "internalType": "bytes32",
          "name": "role",
          "type": "bytes32"
        },
        {
          "internalType": "address",
          "name": "callerConfirmation",
          "type": "address"
        }
      ],
      "name": "renounceRole",
      "outputs": [],
      "stateMutability": "nonpayable",
      "type": "function"
    },
    {
      "inputs": [
        {
          "internalType": "bytes32",
          "name": "role",
          "type": "bytes32"
        },
        {
          "internalType": "address",
          "name": "account",
          "type": "address"
        }
      ],
      "name": "revokeRole",
      "outputs": [],
      "stateMutability": "nonpayable",
      "type": "function"
    },
    {
      "inputs": [
        {
          "internalType": "uint256",
          "name": "pranaAmount",
          "type": "uint256"
        },
        {
          "internalType": "enum SellPranaBond.BondTerm",
          "name": "period",
          "type": "uint8"
        }
      ],
      "name": "sellBondForPranaAmount",
      "outputs": [
        {
          "internalType": "uint256",
          "name": "",
          "type": "uint256"
        }
      ],
      "stateMutability": "nonpayable",
      "type": "function"
    },
    {
      "inputs": [
        {
          "internalType": "bytes4",
          "name": "interfaceId",
          "type": "bytes4"
        }
      ],
      "name": "supportsInterface",
      "outputs": [
        {
          "internalType": "bool",
          "name": "",
          "type": "bool"
        }
      ],
      "stateMutability": "view",
      "type": "function"
    },
    {
      "inputs": [],
      "name": "uniswapV3PoolAddress",
      "outputs": [
        {
          "internalType": "address",
          "name": "",
          "type": "address"
        }
      ],
      "stateMutability": "view",
      "type": "function"
    },
    {
      "inputs": [],
      "name": "unpause",
      "outputs": [],
      "stateMutability": "nonpayable",
      "type": "function"
    },
    {
      "inputs": [
        {
          "internalType": "enum SellPranaBond.BondTerm",
          "name": "period",
          "type": "uint8"
        },
        {
          "internalType": "uint256",
          "name": "_rate",
          "type": "uint256"
        },
        {
          "internalType": "uint256",
          "name": "_duration",
          "type": "uint256"
        }
      ],
      "name": "updateBondRates",
      "outputs": [],
      "stateMutability": "nonpayable",
      "type": "function"
    },
    {
      "inputs": [
        {
          "internalType": "uint256",
          "name": "_minPranaSellAmount",
          "type": "uint256"
        }
      ],
      "name": "updateMinSellAmount",
      "outputs": [],
      "stateMutability": "nonpayable",
      "type": "function"
    },
    {
      "inputs": [
        {
          "internalType": "enum SellPranaBond.BondTerm[]",
          "name": "periods",
          "type": "uint8[]"
        },
        {
          "internalType": "uint256[]",
          "name": "rates",
          "type": "uint256[]"
        },
        {
          "internalType": "uint256[]",
          "name": "durations",
          "type": "uint256[]"
        }
      ],
      "name": "updateMultipleBondRates",
      "outputs": [],
      "stateMutability": "nonpayable",
      "type": "function"
    },
    {
      "inputs": [
        {
          "internalType": "address",
          "name": "token",
          "type": "address"
        },
        {
          "internalType": "uint256",
          "name": "amount",
          "type": "uint256"
        }
      ],
      "name": "withdrawTreasury",
      "outputs": [],
      "stateMutability": "nonpayable",
      "type": "function"
    }
  ],
  "bytecode": "0x60e060405264174876e80060085534801561001957600080fd5b506040516135f03803806135f083398101604081905261003891610639565b600180556002805460ff191690556001600160a01b0383166100a15760405162461bcd60e51b815260206004820152601460248201527f496e76616c69642057425443206164647265737300000000000000000000000060448201526064015b60405180910390fd5b6001600160a01b0382166100f75760405162461bcd60e51b815260206004820152601560248201527f496e76616c6964205052414e41206164647265737300000000000000000000006044820152606401610098565b6001600160a01b03811661014d5760405162461bcd60e51b815260206004820152601460248201527f496e76616c696420506f6f6c20616464726573730000000000000000000000006044820152606401610098565b6001600160a01b0380841660805282811660a052811660c052610171600033610571565b5061019c7f7cacebec1f49b9ad7068665591fac458508c6ad9da1f804163a324b7d985174e33610571565b50506040805180820182526014815262093a8060208083019182526000808052600380835293517f3617319a054d772f909f7c479a2cebe5066e836a939412e32403c99029b92eff5591517f3617319a054d772f909f7c479a2cebe5066e836a939412e32403c99029b92f0055835180850185526050815262278d00818301908152600180855285845291517fa15bc60c955c405d20d9149c709e2460f1c2d9a497496a7f46004d1772c3054c55517fa15bc60c955c405d20d9149c709e2460f1c2d9a497496a7f46004d1772c3054d558451808601865260fa81526276a7008184019081526002855285845290517fc3a24b0501bd2c13a7e57f2db4369ec4c223447539fc0724a9d55ac4a06ebd4d55517fc3a24b0501bd2c13a7e57f2db4369ec4c223447539fc0724a9d55ac4a06ebd4e55845180860186526101f4815262ed4e0081840190815285855285845290517fcbc4e5fb02c3d1de23a9f1e014b4d2ee5aeaea9505df5e855c9210bf472495af55517fcbc4e5fb02c3d1de23a9f1e014b4d2ee5aeaea9505df5e855c9210bf472495b055845180860186526103e881526301e13380818401908152600480865295845290517f83ec6a1f0257b830b5e016457c9cf1435391bf56cc98f369a58a54fe9377246555517f83ec6a1f0257b830b5e016457c9cf1435391bf56cc98f369a58a54fe9377246655845161012081018652838152918201838152948201838152606083018481526080840185815260a0850186815260c0860187815260e0870188815261010088018781528a549788018b559990985295517f8a35acfbc15ff81a39ae7d344fd709f28e8600b4aa8c65c6b64bfe7fe36bd19b60099096029586015597517f8a35acfbc15ff81a39ae7d344fd709f28e8600b4aa8c65c6b64bfe7fe36bd19c850180546001600160a01b0319166001600160a01b0390921691909117905591517f8a35acfbc15ff81a39ae7d344fd709f28e8600b4aa8c65c6b64bfe7fe36bd19d840155517f8a35acfbc15ff81a39ae7d344fd709f28e8600b4aa8c65c6b64bfe7fe36bd19e830155517f8a35acfbc15ff81a39ae7d344fd709f28e8600b4aa8c65c6b64bfe7fe36bd19f82015593517f8a35acfbc15ff81a39ae7d344fd709f28e8600b4aa8c65c6b64bfe7fe36bd1a0850155517f8a35acfbc15ff81a39ae7d344fd709f28e8600b4aa8c65c6b64bfe7fe36bd1a1840155517f8a35acfbc15ff81a39ae7d344fd709f28e8600b4aa8c65c6b64bfe7fe36bd1a2830155517f8a35acfbc15ff81a39ae7d344fd709f28e8600b4aa8c65c6b64bfe7fe36bd1a3909101805460ff19169115159190911790555061067c9050565b6000828152602081815260408083206001600160a01b038516845290915281205460ff16610613576000838152602081815260408083206001600160a01b03861684529091529020805460ff191660011790556105cb3390565b6001600160a01b0316826001600160a01b0316847f2f8788117e7eff1d82e926ec794901d17c78024a50270940304540a733656f0d60405160405180910390a4506001610617565b5060005b92915050565b80516001600160a01b038116811461063457600080fd5b919050565b60008060006060848603121561064e57600080fd5b6106578461061d565b92506106656020850161061d565b91506106736040850161061d565b90509250925092565b60805160a05160c051612eff6106f1600039600081816103e40152610cb8015260008181610247015281816107310152818161077501526117460152600081816102f8015281816105bd01528181610625015281816107030152818161164c01528181611d9c0152611eb70152612eff6000f3fe608060405234801561001057600080fd5b50600436106101da5760003560e01c806373954e7911610104578063997d9c40116100a2578063d547741f11610071578063d547741f14610486578063e66ab18f14610499578063e85bceff146104ac578063ec157782146104d357600080fd5b8063997d9c4014610450578063a217fddf14610458578063ab982ae014610460578063b190570c1461047357600080fd5b80638dee8cad116100de5780638dee8cad146103d7578063902609ed146103df57806391d1485414610406578063973ccf0e1461043d57600080fd5b806373954e79146103a657806382a942e1146103c65780638456cb59146103cf57600080fd5b806336568abe1161017c578063508637711161014b578063508637711461031a5780635c975abb146103315780635f1c17c01461033c57806366e0f6df1461039d57600080fd5b806336568abe146102c55780633f4ba83a146102d85780634ca732b7146102e05780634dede3de146102f357600080fd5b80631c08c08e116101b85780631c08c08e1461022f5780631f6a633014610242578063248a9ca3146102815780632f2ff15d146102b257600080fd5b806301ffc9a7146101df5780630d86419a1461020757806314308bda1461021c575b600080fd5b6101f26101ed36600461283b565b61050f565b60405190151581526020015b60405180910390f35b61021a610215366004612892565b6105a8565b005b61021a61022a36600461290a565b6107e4565b61021a61023d3660046129b0565b610a0d565b6102697f000000000000000000000000000000000000000000000000000000000000000081565b6040516001600160a01b0390911681526020016101fe565b6102a461028f3660046129b0565b60009081526020819052604090206001015490565b6040519081526020016101fe565b61021a6102c03660046129c9565b610c24565b61021a6102d33660046129c9565b610c4f565b61021a610c9b565b6102a46102ee366004612a0d565b610cae565b6102697f000000000000000000000000000000000000000000000000000000000000000081565b610322610d80565b6040516101fe93929190612aa4565b60025460ff166101f2565b61034f61034a3660046129b0565b61104b565b60408051998a526001600160a01b0390981660208a0152968801959095526060870193909352608086019190915260a085015260c084015260e08301521515610100820152610120016101fe565b6102a460075481565b6103b96103b4366004612b48565b6110b3565b6040516101fe9190612b65565b6102a460085481565b61021a61134f565b6103b9611362565b6102697f000000000000000000000000000000000000000000000000000000000000000081565b6101f26104143660046129c9565b6000918252602082815260408084206001600160a01b0393909316845291905290205460ff1690565b61026961044b3660046129b0565b611573565b6005546102a4565b6102a4600081565b6102a461046e366004612a0d565b61159d565b61021a6104813660046129b0565b6119fb565b61021a6104943660046129c9565b611adf565b61021a6104a7366004612c0e565b611b04565b6102a47f7cacebec1f49b9ad7068665591fac458508c6ad9da1f804163a324b7d985174e81565b6104fa6104e1366004612c41565b6003602052600090815260409020805460019091015482565b604080519283526020830191909152016101fe565b60007fffffffff0000000000000000000000000000000000000000000000000000000082167f7965db0b0000000000000000000000000000000000000000000000000000000014806105a257507f01ffc9a7000000000000000000000000000000000000000000000000000000007fffffffff000000000000000000000000000000000000000000000000000000008316145b92915050565b60006105b381611c38565b6105bb611c42565b7f00000000000000000000000000000000000000000000000000000000000000006001600160a01b0316836001600160a01b03160361072f576007546040517f70a082310000000000000000000000000000000000000000000000000000000081523060048201527f00000000000000000000000000000000000000000000000000000000000000006001600160a01b0316906370a0823190602401602060405180830381865afa158015610674573d6000803e3d6000fd5b505050506040513d601f19601f820116820180604052508101906106989190612c5c565b6106a29190612ca4565b8211156106f65760405162461bcd60e51b815260206004820152601e60248201527f43616e6e6f7420776974686472617720636f6d6d69747465642057425443000060448201526064015b60405180910390fd5b61072a6001600160a01b037f0000000000000000000000000000000000000000000000000000000000000000163384611c81565b505050565b7f00000000000000000000000000000000000000000000000000000000000000006001600160a01b0316836001600160a01b03160361079c5761072a6001600160a01b037f0000000000000000000000000000000000000000000000000000000000000000163384611c81565b60405162461bcd60e51b815260206004820152601f60248201527f43616e206f6e6c79207769746864726177205052414e41206f7220574254430060448201526064016106ed565b7f7cacebec1f49b9ad7068665591fac458508c6ad9da1f804163a324b7d985174e61080e81611c38565b610816611c42565b858414801561082457508582145b6108705760405162461bcd60e51b815260206004820152601860248201527f4172726179206c656e67746873206d757374206d61746368000000000000000060448201526064016106ed565b60005b86811015610a0357600084848381811061088f5761088f612cb7565b90506020020135116108e35760405162461bcd60e51b815260206004820152601f60248201527f4475726174696f6e206d7573742062652067726561746572207468616e20300060448201526064016106ed565b6113888686838181106108f8576108f8612cb7565b90506020020135111561094d5760405162461bcd60e51b815260206004820152601660248201527f526174652063616e6e6f7420657863656564203530250000000000000000000060448201526064016106ed565b604051806040016040528087878481811061096a5761096a612cb7565b90506020020135815260200185858481811061098857610988612cb7565b90506020020135815250600360008a8a858181106109a8576109a8612cb7565b90506020020160208101906109bd9190612c41565b60048111156109ce576109ce612a39565b60048111156109df576109df612a39565b81526020808201929092526040016000208251815591015160019182015501610873565b5050505050505050565b610a15611cf5565b610a1d611c42565b600081118015610a2e575060045481105b610a7a5760405162461bcd60e51b815260206004820152600f60248201527f496e76616c696420626f6e64204944000000000000000000000000000000000060448201526064016106ed565b600060048281548110610a8f57610a8f612cb7565b600091825260209091206001600990920201908101549091506001600160a01b03163314610aff5760405162461bcd60e51b815260206004820152600e60248201527f4e6f7420626f6e64206f776e657200000000000000000000000000000000000060448201526064016106ed565b80600601544211610b525760405162461bcd60e51b815260206004820152601660248201527f4e6f206e657720616d6f756e7420746f20636c61696d0000000000000000000060448201526064016106ed565b600881015460ff1615610ba75760405162461bcd60e51b815260206004820152601260248201527f426f6e642066756c6c7920636c61696d6564000000000000000000000000000060448201526064016106ed565b600081600401544210610bc457610bbd82611d38565b9050610bd0565b610bcd82611e07565b90505b426006830155604080518481523360208201529081018290527f1f8fc880633617d30d8a0ccf0e892d93909581963a8f6e05e0d573c551e0ddab9060600160405180910390a15050610c2160018055565b50565b600082815260208190526040902060010154610c3f81611c38565b610c498383611ee9565b50505050565b6001600160a01b0381163314610c91576040517f6697b23200000000000000000000000000000000000000000000000000000000815260040160405180910390fd5b61072a8282611f93565b6000610ca681611c38565b610c21612016565b6000806000610cdc7f0000000000000000000000000000000000000000000000000000000000000000612068565b90925090506000610cf78387610cf28186612ce6565b61222e565b9050600060036000876004811115610d1157610d11612a39565b6004811115610d2257610d22612a39565b815260208101919091526040016000908120549150612710610d448382612ce6565b610d4e9085612cf9565b610d589190612d10565b90506000604f610d69836050612cf9565b610d739190612d10565b9998505050505050505050565b60408051600580825260c0820190925260609182918291600091906020820160a080368337505060408051600580825260c0820190925292935060009291506020820160a080368337505060408051600580825260c0820190925292935060009291506020820160a080368337019050509050600083600081518110610e0857610e08612cb7565b60200260200101906004811115610e2157610e21612a39565b90816004811115610e3457610e34612a39565b81525050600183600181518110610e4d57610e4d612cb7565b60200260200101906004811115610e6657610e66612a39565b90816004811115610e7957610e79612a39565b81525050600283600281518110610e9257610e92612cb7565b60200260200101906004811115610eab57610eab612a39565b90816004811115610ebe57610ebe612a39565b81525050600383600381518110610ed757610ed7612cb7565b60200260200101906004811115610ef057610ef0612a39565b90816004811115610f0357610f03612a39565b81525050600483600481518110610f1c57610f1c612cb7565b60200260200101906004811115610f3557610f35612a39565b90816004811115610f4857610f48612a39565b90525060005b600581101561103e5760036000858381518110610f6d57610f6d612cb7565b60200260200101516004811115610f8657610f86612a39565b6004811115610f9757610f97612a39565b815260200190815260200160002060000154838281518110610fbb57610fbb612cb7565b60200260200101818152505060036000858381518110610fdd57610fdd612cb7565b60200260200101516004811115610ff657610ff6612a39565b600481111561100757611007612a39565b81526020019081526020016000206001015482828151811061102b5761102b612cb7565b6020908102919091010152600101610f4e565b5091959094509092509050565b6004818154811061105b57600080fd5b60009182526020909120600990910201805460018201546002830154600384015460048501546005860154600687015460078801546008909801549698506001600160a01b0390951696939592949193909260ff1689565b6060600060015b60045481101561114d57836001600160a01b0316600482815481106110e1576110e1612cb7565b60009182526020909120600160099092020101546001600160a01b031614801561113257506004818154811061111957611119612cb7565b600091825260209091206008600990920201015460ff16155b15611145578161114181612d7a565b9250505b6001016110ba565b5060008167ffffffffffffffff81111561116957611169612d4b565b6040519080825280602002602001820160405280156111f457816020015b6111e16040518061012001604052806000815260200160006001600160a01b031681526020016000815260200160008152602001600081526020016000815260200160008152602001600081526020016000151581525090565b8152602001906001900390816111875790505b509050600060015b60045481101561134557856001600160a01b03166004828154811061122357611223612cb7565b60009182526020909120600160099092020101546001600160a01b031614801561127457506004818154811061125b5761125b612cb7565b600091825260209091206008600990920201015460ff16155b1561133d576004818154811061128c5761128c612cb7565b6000918252602091829020604080516101208101825260099093029091018054835260018101546001600160a01b0316938301939093526002830154908201526003820154606082015260048201546080820152600582015460a0820152600682015460c0820152600782015460e082015260089091015460ff161515610100820152835184908490811061132357611323612cb7565b6020026020010181905250818061133990612d7a565b9250505b6001016111fc565b5090949350505050565b600061135a81611c38565b610c216123c7565b6060600060015b6004548110156113b7576004818154811061138657611386612cb7565b600091825260209091206008600990920201015460ff166113af57816113ab81612d7a565b9250505b600101611369565b5060008167ffffffffffffffff8111156113d3576113d3612d4b565b60405190808252806020026020018201604052801561145e57816020015b61144b6040518061012001604052806000815260200160006001600160a01b031681526020016000815260200160008152602001600081526020016000815260200160008152602001600081526020016000151581525090565b8152602001906001900390816113f15790505b509050600060015b60045481101561156a576004818154811061148357611483612cb7565b600091825260209091206008600990920201015460ff1661156257600481815481106114b1576114b1612cb7565b6000918252602091829020604080516101208101825260099093029091018054835260018101546001600160a01b0316938301939093526002830154908201526003820154606082015260048201546080820152600582015460a0820152600682015460c0820152600782015460e082015260089091015460ff161515610100820152835184908490811061154857611548612cb7565b6020026020010181905250818061155e90612d7a565b9250505b600101611466565b50909392505050565b6005818154811061158357600080fd5b6000918252602090912001546001600160a01b0316905081565b60006115a7611cf5565b6115af611c42565b6008548310156116015760405162461bcd60e51b815260206004820152601a60248201527f5052414e4120616d6f756e742062656c6f77206d696e696d756d00000000000060448201526064016106ed565b600061160d8484610cae565b6007546040517f70a082310000000000000000000000000000000000000000000000000000000081523060048201529192506000916001600160a01b037f000000000000000000000000000000000000000000000000000000000000000016906370a0823190602401602060405180830381865afa158015611693573d6000803e3d6000fd5b505050506040513d601f19601f820116820180604052508101906116b79190612c5c565b6116c19190612ca4565b9050808211156117395760405162461bcd60e51b815260206004820152602560248201527f4e6f7420656e6f756768205742544320617661696c61626c6520696e2074726560448201527f617375727900000000000000000000000000000000000000000000000000000060648201526084016106ed565b61176e6001600160a01b037f000000000000000000000000000000000000000000000000000000000000000016333088612404565b60048054604080516101208101825282815233602082015290810188905260608101859052909190608081016003600089858111156117af576117af612a39565b60048111156117c0576117c0612a39565b815260200190815260200160002060010154426117dd9190612ce6565b815242602080830182905260408084019290925260006060808501829052608094850182905286546001808201895597835283832087516009909202019081559286015196830180547fffffffffffffffffffffffff0000000000000000000000000000000000000000166001600160a01b039098169790971790965591840151600282015593830151600385015590820151600484015560a0820151600584015560c0820151600684015560e0820151600780850191909155610100909201516008909301805460ff19169315159390931790925580548592906118c3908490612ce6565b90915550503360009081526006602052604090205460ff16611952576005805460018181019092557f036b6384b5eca791c62761152d0c79bb0604c104a5fb6f4eb0703f3154bb3db00180547fffffffffffffffffffffffff000000000000000000000000000000000000000016339081179091556000908152600660205260409020805460ff191690911790555b7f4acca98f5286518840da1d7d072ad2e53f7eecb910037434e4d3aa8cb47d8b2c81338886600360008b600481111561198d5761198d612a39565b600481111561199e5761199e612a39565b815260200190815260200160002060010154426119bb9190612ce6565b604080519586526001600160a01b039094166020860152928401919091526060830152608082015260a00160405180910390a1925050506105a260018055565b7f7cacebec1f49b9ad7068665591fac458508c6ad9da1f804163a324b7d985174e611a2581611c38565b611a2d611c42565b60008211611aa35760405162461bcd60e51b815260206004820152602660248201527f4d696e2073656c6c20616d6f756e74206d75737420626520677265617465722060448201527f7468616e2030000000000000000000000000000000000000000000000000000060648201526084016106ed565b60088290556040518281527f82a658cd2f56857e4fd63044d28aae6521c66377bdac5dd0beee7fcc91707ca39060200160405180910390a15050565b600082815260208190526040902060010154611afa81611c38565b610c498383611f93565b7f7cacebec1f49b9ad7068665591fac458508c6ad9da1f804163a324b7d985174e611b2e81611c38565b611b36611c42565b60008211611b865760405162461bcd60e51b815260206004820152601f60248201527f4475726174696f6e206d7573742062652067726561746572207468616e20300060448201526064016106ed565b611388831115611bd85760405162461bcd60e51b815260206004820152601660248201527f526174652063616e6e6f7420657863656564203530250000000000000000000060448201526064016106ed565b60405180604001604052808481526020018381525060036000866004811115611c0357611c03612a39565b6004811115611c1457611c14612a39565b81526020808201929092526040016000208251815591015160019091015550505050565b610c21813361243d565b60025460ff1615611c7f576040517fd93c066500000000000000000000000000000000000000000000000000000000815260040160405180910390fd5b565b6040516001600160a01b0383811660248301526044820183905261072a91859182169063a9059cbb906064015b604051602081830303815290604052915060e01b6020820180517bffffffffffffffffffffffffffffffffffffffffffffffffffffffff83818316178352505050506124ad565b600260015403611d31576040517f3ee5aeb500000000000000000000000000000000000000000000000000000000815260040160405180910390fd5b6002600155565b60008082600701548360030154611d4f9190612ca4565b90508015611dc5578060076000828254611d699190612ca4565b9250508190555080836007016000828254611d849190612ce6565b90915550506001830154611dc5906001600160a01b037f00000000000000000000000000000000000000000000000000000000000000008116911683611c81565b60088301805460ff19166001908117909155830154611dec906001600160a01b0316612537565b6105a25760018301546105a2906001600160a01b03166125d3565b60008082600501548360040154611e1e9190612ca4565b90506000836005015442611e329190612ca4565b90506000611e458560030154838561222e565b9050600085600701548211611e5b576000611e6a565b6007860154611e6a9083612ca4565b90508015611ee0578060076000828254611e849190612ca4565b9250508190555080866007016000828254611e9f9190612ce6565b90915550506001860154611ee0906001600160a01b037f00000000000000000000000000000000000000000000000000000000000000008116911683611c81565b95945050505050565b6000828152602081815260408083206001600160a01b038516845290915281205460ff16611f8b576000838152602081815260408083206001600160a01b03861684529091529020805460ff19166001179055611f433390565b6001600160a01b0316826001600160a01b0316847f2f8788117e7eff1d82e926ec794901d17c78024a50270940304540a733656f0d60405160405180910390a45060016105a2565b5060006105a2565b6000828152602081815260408083206001600160a01b038516845290915281205460ff1615611f8b576000838152602081815260408083206001600160a01b0386168085529252808320805460ff1916905551339286917ff6391f5c32d9c69d2a47ea670b442974b53935d1edc7fd64eb21e047a839171b9190a45060016105a2565b61201e6127ff565b6002805460ff191690557f5db9ee0a495bf2e6ff9c91a7834c1ba4fdd244a5e8aa4e537bd38aeae4b073aa335b6040516001600160a01b03909116815260200160405180910390a1565b60008060008390506000816001600160a01b0316633850c7bd6040518163ffffffff1660e01b815260040160e060405180830381865afa1580156120b0573d6000803e3d6000fd5b505050506040513d601f19601f820116820180604052508101906120d49190612dc4565b5050505050506001600160a01b031690506000826001600160a01b0316631a6865026040518163ffffffff1660e01b8152600401602060405180830381865afa158015612125573d6000803e3d6000fd5b505050506040513d601f19601f820116820180604052508101906121499190612e68565b6fffffffffffffffffffffffffffffffff169050600082116121ad5760405162461bcd60e51b815260206004820152600d60248201527f496e76616c69642070726963650000000000000000000000000000000000000060448201526064016106ed565b600081116121fd5760405162461bcd60e51b815260206004820152600c60248201527f4e6f206c6971756964697479000000000000000000000000000000000000000060448201526064016106ed565b6c0100000000000000000000000061221682828561222e565b955061222382848361222e565b945050505050915091565b600080807fffffffffffffffffffffffffffffffffffffffffffffffffffffffffffffffff85870985870292508281108382030391505080600003612285576000841161227a57600080fd5b5082900490506123c0565b80841161229157600080fd5b60008486880980840393811190920391905060006122b186196001612ce6565b86169586900495938490049360008190030460010190506122d28184612cf9565b9093179260006122e3876003612cf9565b60021890506122f28188612cf9565b6122fd906002612ca4565b6123079082612cf9565b90506123138188612cf9565b61231e906002612ca4565b6123289082612cf9565b90506123348188612cf9565b61233f906002612ca4565b6123499082612cf9565b90506123558188612cf9565b612360906002612ca4565b61236a9082612cf9565b90506123768188612cf9565b612381906002612ca4565b61238b9082612cf9565b90506123978188612cf9565b6123a2906002612ca4565b6123ac9082612cf9565b90506123b88186612cf9565b955050505050505b9392505050565b6123cf611c42565b6002805460ff191660011790557f62e78cea01bee320cd4e420270b5ea74000d11b0c9f74754ebdbfc544b05a25861204b3390565b6040516001600160a01b038481166024830152838116604483015260648201839052610c499186918216906323b872dd90608401611cae565b6000828152602081815260408083206001600160a01b038516845290915290205460ff166124a9576040517fe2517d3f0000000000000000000000000000000000000000000000000000000081526001600160a01b0382166004820152602481018390526044016106ed565b5050565b600080602060008451602086016000885af1806124d0576040513d6000823e3d81fd5b50506000513d915081156124e85780600114156124f5565b6001600160a01b0384163b155b15610c49576040517f5274afe70000000000000000000000000000000000000000000000000000000081526001600160a01b03851660048201526024016106ed565b600060015b6004548110156125ca57826001600160a01b03166004828154811061256357612563612cb7565b60009182526020909120600160099092020101546001600160a01b03161480156125b457506004818154811061259b5761259b612cb7565b600091825260209091206008600990920201015460ff16155b156125c25750600192915050565b60010161253c565b50600092915050565b6001600160a01b03811660009081526006602052604090205460ff1661263b5760405162461bcd60e51b815260206004820152601960248201527f55736572206973206e6f74206120626f6e6420686f6c6465720000000000000060448201526064016106ed565b60008060005b60055481101561269657836001600160a01b03166005828154811061266857612668612cb7565b6000918252602090912001546001600160a01b03160361268e5780925060019150612696565b600101612641565b50806126e45760405162461bcd60e51b815260206004820152601d60248201527f55736572206e6f7420666f756e6420696e20626f6e64486f6c6465727300000060448201526064016106ed565b6005546000906126f690600190612ca4565b905080831461276d576005818154811061271257612712612cb7565b600091825260209091200154600580546001600160a01b03909216918590811061273e5761273e612cb7565b9060005260206000200160006101000a8154816001600160a01b0302191690836001600160a01b031602179055505b600580548061277e5761277e612e9a565b6000828152602080822083017fffffffffffffffffffffffffffffffffffffffffffffffffffffffffffffffff90810180547fffffffffffffffffffffffff00000000000000000000000000000000000000001690559092019092556001600160a01b03959095168152600690945250506040909120805460ff1916905550565b60025460ff16611c7f576040517f8dfc202b00000000000000000000000000000000000000000000000000000000815260040160405180910390fd5b60006020828403121561284d57600080fd5b81357fffffffff00000000000000000000000000000000000000000000000000000000811681146123c057600080fd5b6001600160a01b0381168114610c2157600080fd5b600080604083850312156128a557600080fd5b82356128b08161287d565b946020939093013593505050565b60008083601f8401126128d057600080fd5b50813567ffffffffffffffff8111156128e857600080fd5b6020830191508360208260051b850101111561290357600080fd5b9250929050565b6000806000806000806060878903121561292357600080fd5b863567ffffffffffffffff81111561293a57600080fd5b61294689828a016128be565b909750955050602087013567ffffffffffffffff81111561296657600080fd5b61297289828a016128be565b909550935050604087013567ffffffffffffffff81111561299257600080fd5b61299e89828a016128be565b979a9699509497509295939492505050565b6000602082840312156129c257600080fd5b5035919050565b600080604083850312156129dc57600080fd5b8235915060208301356129ee8161287d565b809150509250929050565b803560058110612a0857600080fd5b919050565b60008060408385031215612a2057600080fd5b82359150612a30602084016129f9565b90509250929050565b7f4e487b7100000000000000000000000000000000000000000000000000000000600052602160045260246000fd5b600081518084526020840193506020830160005b82811015612a9a578151865260209586019590910190600101612a7c565b5093949350505050565b6060808252845190820181905260009060208601906080840190835b81811015612b1557835160058110612b01577f4e487b7100000000000000000000000000000000000000000000000000000000600052602160045260246000fd5b835260209384019390920191600101612ac0565b50508381036020850152612b298187612a68565b9150508281036040840152612b3e8185612a68565b9695505050505050565b600060208284031215612b5a57600080fd5b81356123c08161287d565b602080825282518282018190526000918401906040840190835b81811015612c03578351805184526001600160a01b03602082015116602085015260408101516040850152606081015160608501526080810151608085015260a081015160a085015260c081015160c085015260e081015160e085015261010081015115156101008501525061012083019250602084019350600181019050612b7f565b509095945050505050565b600080600060608486031215612c2357600080fd5b612c2c846129f9565b95602085013595506040909401359392505050565b600060208284031215612c5357600080fd5b6123c0826129f9565b600060208284031215612c6e57600080fd5b5051919050565b7f4e487b7100000000000000000000000000000000000000000000000000000000600052601160045260246000fd5b818103818111156105a2576105a2612c75565b7f4e487b7100000000000000000000000000000000000000000000000000000000600052603260045260246000fd5b808201808211156105a2576105a2612c75565b80820281158282048414176105a2576105a2612c75565b600082612d46577f4e487b7100000000000000000000000000000000000000000000000000000000600052601260045260246000fd5b500490565b7f4e487b7100000000000000000000000000000000000000000000000000000000600052604160045260246000fd5b60007fffffffffffffffffffffffffffffffffffffffffffffffffffffffffffffffff8203612dab57612dab612c75565b5060010190565b805161ffff81168114612a0857600080fd5b600080600080600080600060e0888a031215612ddf57600080fd5b8751612dea8161287d565b8097505060208801518060020b8114612e0257600080fd5b9550612e1060408901612db2565b9450612e1e60608901612db2565b9350612e2c60808901612db2565b925060a088015160ff81168114612e4257600080fd5b60c08901519092508015158114612e5857600080fd5b8091505092959891949750929550565b600060208284031215612e7a57600080fd5b81516fffffffffffffffffffffffffffffffff811681146123c057600080fd5b7f4e487b7100000000000000000000000000000000000000000000000000000000600052603160045260246000fdfea26469706673582212203477fe6c5a04418a6b89dcfd0aff7b4c1d83661181f2e8dd0fb3ef0f3252975b64736f6c634300081c0033",
  "linkReferences": {},
  "deployedLinkReferences": {}
}